{
  "contractName": "GovernorAlpha",
  "abi": [
    {
      "inputs": [
        {
          "internalType": "address",
          "name": "timelock_",
          "type": "address"
        },
        {
          "internalType": "address",
          "name": "yam_",
          "type": "address"
        }
      ],
      "payable": false,
      "stateMutability": "nonpayable",
      "type": "constructor"
    },
    {
      "anonymous": false,
      "inputs": [
        {
          "indexed": false,
          "internalType": "uint256",
          "name": "id",
          "type": "uint256"
        }
      ],
      "name": "ProposalCanceled",
      "type": "event"
    },
    {
      "anonymous": false,
      "inputs": [
        {
          "indexed": false,
          "internalType": "uint256",
          "name": "id",
          "type": "uint256"
        },
        {
          "indexed": false,
          "internalType": "address",
          "name": "proposer",
          "type": "address"
        },
        {
          "indexed": false,
          "internalType": "address[]",
          "name": "targets",
          "type": "address[]"
        },
        {
          "indexed": false,
          "internalType": "uint256[]",
          "name": "values",
          "type": "uint256[]"
        },
        {
          "indexed": false,
          "internalType": "string[]",
          "name": "signatures",
          "type": "string[]"
        },
        {
          "indexed": false,
          "internalType": "bytes[]",
          "name": "calldatas",
          "type": "bytes[]"
        },
        {
          "indexed": false,
          "internalType": "uint256",
          "name": "startBlock",
          "type": "uint256"
        },
        {
          "indexed": false,
          "internalType": "uint256",
          "name": "endBlock",
          "type": "uint256"
        },
        {
          "indexed": false,
          "internalType": "string",
          "name": "description",
          "type": "string"
        }
      ],
      "name": "ProposalCreated",
      "type": "event"
    },
    {
      "anonymous": false,
      "inputs": [
        {
          "indexed": false,
          "internalType": "uint256",
          "name": "id",
          "type": "uint256"
        }
      ],
      "name": "ProposalExecuted",
      "type": "event"
    },
    {
      "anonymous": false,
      "inputs": [
        {
          "indexed": false,
          "internalType": "uint256",
          "name": "id",
          "type": "uint256"
        },
        {
          "indexed": false,
          "internalType": "uint256",
          "name": "eta",
          "type": "uint256"
        }
      ],
      "name": "ProposalQueued",
      "type": "event"
    },
    {
      "anonymous": false,
      "inputs": [
        {
          "indexed": false,
          "internalType": "address",
          "name": "voter",
          "type": "address"
        },
        {
          "indexed": false,
          "internalType": "uint256",
          "name": "proposalId",
          "type": "uint256"
        },
        {
          "indexed": false,
          "internalType": "bool",
          "name": "support",
          "type": "bool"
        },
        {
          "indexed": false,
          "internalType": "uint256",
          "name": "votes",
          "type": "uint256"
        }
      ],
      "name": "VoteCast",
      "type": "event"
    },
    {
      "constant": true,
      "inputs": [],
      "name": "BALLOT_TYPEHASH",
      "outputs": [
        {
          "internalType": "bytes32",
          "name": "",
          "type": "bytes32"
        }
      ],
      "payable": false,
      "stateMutability": "view",
      "type": "function"
    },
    {
      "constant": true,
      "inputs": [],
      "name": "DOMAIN_TYPEHASH",
      "outputs": [
        {
          "internalType": "bytes32",
          "name": "",
          "type": "bytes32"
        }
      ],
      "payable": false,
      "stateMutability": "view",
      "type": "function"
    },
    {
      "constant": true,
      "inputs": [],
      "name": "guardian",
      "outputs": [
        {
          "internalType": "address",
          "name": "",
          "type": "address"
        }
      ],
      "payable": false,
      "stateMutability": "view",
      "type": "function"
    },
    {
      "constant": true,
      "inputs": [
        {
          "internalType": "address",
          "name": "",
          "type": "address"
        }
      ],
      "name": "latestProposalIds",
      "outputs": [
        {
          "internalType": "uint256",
          "name": "",
          "type": "uint256"
        }
      ],
      "payable": false,
      "stateMutability": "view",
      "type": "function"
    },
    {
      "constant": true,
      "inputs": [],
      "name": "name",
      "outputs": [
        {
          "internalType": "string",
          "name": "",
          "type": "string"
        }
      ],
      "payable": false,
      "stateMutability": "view",
      "type": "function"
    },
    {
      "constant": true,
      "inputs": [],
      "name": "proposalCount",
      "outputs": [
        {
          "internalType": "uint256",
          "name": "",
          "type": "uint256"
        }
      ],
      "payable": false,
      "stateMutability": "view",
      "type": "function"
    },
    {
      "constant": true,
      "inputs": [
        {
          "internalType": "uint256",
          "name": "",
          "type": "uint256"
        }
      ],
      "name": "proposals",
      "outputs": [
        {
          "internalType": "uint256",
          "name": "id",
          "type": "uint256"
        },
        {
          "internalType": "address",
          "name": "proposer",
          "type": "address"
        },
        {
          "internalType": "uint256",
          "name": "eta",
          "type": "uint256"
        },
        {
          "internalType": "uint256",
          "name": "startBlock",
          "type": "uint256"
        },
        {
          "internalType": "uint256",
          "name": "endBlock",
          "type": "uint256"
        },
        {
          "internalType": "uint256",
          "name": "forVotes",
          "type": "uint256"
        },
        {
          "internalType": "uint256",
          "name": "againstVotes",
          "type": "uint256"
        },
        {
          "internalType": "bool",
          "name": "canceled",
          "type": "bool"
        },
        {
          "internalType": "bool",
          "name": "executed",
          "type": "bool"
        }
      ],
      "payable": false,
      "stateMutability": "view",
      "type": "function"
    },
    {
      "constant": true,
      "inputs": [],
      "name": "timelock",
      "outputs": [
        {
          "internalType": "contract TimelockInterface",
          "name": "",
          "type": "address"
        }
      ],
      "payable": false,
      "stateMutability": "view",
      "type": "function"
    },
    {
      "constant": true,
      "inputs": [],
      "name": "yam",
      "outputs": [
        {
          "internalType": "contract YAMInterface",
          "name": "",
          "type": "address"
        }
      ],
      "payable": false,
      "stateMutability": "view",
      "type": "function"
    },
    {
      "constant": true,
      "inputs": [],
      "name": "quorumVotes",
      "outputs": [
        {
          "internalType": "uint256",
          "name": "",
          "type": "uint256"
        }
      ],
      "payable": false,
      "stateMutability": "view",
      "type": "function"
    },
    {
      "constant": true,
      "inputs": [],
      "name": "proposalThreshold",
      "outputs": [
        {
          "internalType": "uint256",
          "name": "",
          "type": "uint256"
        }
      ],
      "payable": false,
      "stateMutability": "view",
      "type": "function"
    },
    {
      "constant": true,
      "inputs": [],
      "name": "proposalMaxOperations",
      "outputs": [
        {
          "internalType": "uint256",
          "name": "",
          "type": "uint256"
        }
      ],
      "payable": false,
      "stateMutability": "pure",
      "type": "function"
    },
    {
      "constant": true,
      "inputs": [],
      "name": "votingDelay",
      "outputs": [
        {
          "internalType": "uint256",
          "name": "",
          "type": "uint256"
        }
      ],
      "payable": false,
      "stateMutability": "pure",
      "type": "function"
    },
    {
      "constant": true,
      "inputs": [],
      "name": "votingPeriod",
      "outputs": [
        {
          "internalType": "uint256",
          "name": "",
          "type": "uint256"
        }
      ],
      "payable": false,
      "stateMutability": "pure",
      "type": "function"
    },
    {
      "constant": false,
      "inputs": [
        {
          "internalType": "address[]",
          "name": "targets",
          "type": "address[]"
        },
        {
          "internalType": "uint256[]",
          "name": "values",
          "type": "uint256[]"
        },
        {
          "internalType": "string[]",
          "name": "signatures",
          "type": "string[]"
        },
        {
          "internalType": "bytes[]",
          "name": "calldatas",
          "type": "bytes[]"
        },
        {
          "internalType": "string",
          "name": "description",
          "type": "string"
        }
      ],
      "name": "propose",
      "outputs": [
        {
          "internalType": "uint256",
          "name": "",
          "type": "uint256"
        }
      ],
      "payable": false,
      "stateMutability": "nonpayable",
      "type": "function"
    },
    {
      "constant": false,
      "inputs": [
        {
          "internalType": "uint256",
          "name": "proposalId",
          "type": "uint256"
        }
      ],
      "name": "queue",
      "outputs": [],
      "payable": false,
      "stateMutability": "nonpayable",
      "type": "function"
    },
    {
      "constant": false,
      "inputs": [
        {
          "internalType": "uint256",
          "name": "proposalId",
          "type": "uint256"
        }
      ],
      "name": "execute",
      "outputs": [],
      "payable": true,
      "stateMutability": "payable",
      "type": "function"
    },
    {
      "constant": false,
      "inputs": [
        {
          "internalType": "uint256",
          "name": "proposalId",
          "type": "uint256"
        }
      ],
      "name": "cancel",
      "outputs": [],
      "payable": false,
      "stateMutability": "nonpayable",
      "type": "function"
    },
    {
      "constant": true,
      "inputs": [
        {
          "internalType": "uint256",
          "name": "proposalId",
          "type": "uint256"
        }
      ],
      "name": "getActions",
      "outputs": [
        {
          "internalType": "address[]",
          "name": "targets",
          "type": "address[]"
        },
        {
          "internalType": "uint256[]",
          "name": "values",
          "type": "uint256[]"
        },
        {
          "internalType": "string[]",
          "name": "signatures",
          "type": "string[]"
        },
        {
          "internalType": "bytes[]",
          "name": "calldatas",
          "type": "bytes[]"
        }
      ],
      "payable": false,
      "stateMutability": "view",
      "type": "function"
    },
    {
      "constant": true,
      "inputs": [
        {
          "internalType": "uint256",
          "name": "proposalId",
          "type": "uint256"
        },
        {
          "internalType": "address",
          "name": "voter",
          "type": "address"
        }
      ],
      "name": "getReceipt",
      "outputs": [
        {
          "components": [
            {
              "internalType": "bool",
              "name": "hasVoted",
              "type": "bool"
            },
            {
              "internalType": "bool",
              "name": "support",
              "type": "bool"
            },
            {
              "internalType": "uint256",
              "name": "votes",
              "type": "uint256"
            }
          ],
          "internalType": "struct GovernorAlpha.Receipt",
          "name": "",
          "type": "tuple"
        }
      ],
      "payable": false,
      "stateMutability": "view",
      "type": "function"
    },
    {
      "constant": true,
      "inputs": [
        {
          "internalType": "uint256",
          "name": "proposalId",
          "type": "uint256"
        }
      ],
      "name": "state",
      "outputs": [
        {
          "internalType": "enum GovernorAlpha.ProposalState",
          "name": "",
          "type": "uint8"
        }
      ],
      "payable": false,
      "stateMutability": "view",
      "type": "function"
    },
    {
      "constant": false,
      "inputs": [
        {
          "internalType": "uint256",
          "name": "proposalId",
          "type": "uint256"
        },
        {
          "internalType": "bool",
          "name": "support",
          "type": "bool"
        }
      ],
      "name": "castVote",
      "outputs": [],
      "payable": false,
      "stateMutability": "nonpayable",
      "type": "function"
    },
    {
      "constant": false,
      "inputs": [
        {
          "internalType": "uint256",
          "name": "proposalId",
          "type": "uint256"
        },
        {
          "internalType": "bool",
          "name": "support",
          "type": "bool"
        },
        {
          "internalType": "uint8",
          "name": "v",
          "type": "uint8"
        },
        {
          "internalType": "bytes32",
          "name": "r",
          "type": "bytes32"
        },
        {
          "internalType": "bytes32",
          "name": "s",
          "type": "bytes32"
        }
      ],
      "name": "castVoteBySig",
      "outputs": [],
      "payable": false,
      "stateMutability": "nonpayable",
      "type": "function"
    },
    {
      "constant": false,
      "inputs": [],
      "name": "__acceptAdmin",
      "outputs": [],
      "payable": false,
      "stateMutability": "nonpayable",
      "type": "function"
    },
    {
      "constant": false,
      "inputs": [],
      "name": "__abdicate",
      "outputs": [],
      "payable": false,
      "stateMutability": "nonpayable",
      "type": "function"
    },
    {
      "constant": false,
      "inputs": [
        {
          "internalType": "address",
          "name": "newPendingAdmin",
          "type": "address"
        },
        {
          "internalType": "uint256",
          "name": "eta",
          "type": "uint256"
        }
      ],
      "name": "__queueSetTimelockPendingAdmin",
      "outputs": [],
      "payable": false,
      "stateMutability": "nonpayable",
      "type": "function"
    },
    {
      "constant": false,
      "inputs": [
        {
          "internalType": "address",
          "name": "newPendingAdmin",
          "type": "address"
        },
        {
          "internalType": "uint256",
          "name": "eta",
          "type": "uint256"
        }
      ],
      "name": "__executeSetTimelockPendingAdmin",
      "outputs": [],
      "payable": false,
      "stateMutability": "nonpayable",
      "type": "function"
    }
  ],
  "bytecode": "0x60806040523480156200001157600080fd5b506040516200403f3803806200403f833981016040819052620000349162000089565b600080546001600160a01b039384166001600160a01b0319918216179091556001805492909316918116919091179091556002805490911633179055620000f4565b80516200008381620000da565b92915050565b600080604083850312156200009d57600080fd5b6000620000ab858562000076565b9250506020620000be8582860162000076565b9150509250929050565b60006001600160a01b03821662000083565b620000e581620000c8565b8114620000f157600080fd5b50565b613f3b80620001046000396000f3fe6080604052600436106101ac5760003560e01c8063452a9320116100ec578063d33219b41161008a578063ddf0b00911610064578063ddf0b00914610473578063deaaa7cc14610493578063e23a9a52146104a8578063fe0d94c1146104d5576101ac565b8063d33219b414610429578063da35c6641461043e578063da95691a14610453576101ac565b80637bdbe4d0116100c65780637bdbe4d0146103ca57806391500671146103df578063b58131b0146103ff578063b9a6196114610414576101ac565b8063452a9320146103735780634634c61f14610395578063760fbc13146103b5576101ac565b806320606b7011610159578063328dd98211610133578063328dd982146102e15780633932abb1146103115780633e4f49e61461032657806340e58ee514610353576101ac565b806320606b701461029757806321f43e42146102ac57806324bc1a64146102cc576101ac565b8063071c03321161018a578063071c03321461023357806315373e3d1461025557806317977c6114610277576101ac565b8063013cf08b146101b157806302a251a3146101ef57806306fdde0314610211575b600080fd5b3480156101bd57600080fd5b506101d16101cc366004612a0a565b6104e8565b6040516101e699989796959493929190613cbd565b60405180910390f35b3480156101fb57600080fd5b5061020461054e565b6040516101e691906139f7565b34801561021d57600080fd5b50610226610555565b6040516101e69190613aa6565b34801561023f57600080fd5b5061024861058e565b6040516101e69190613a8a565b34801561026157600080fd5b50610275610270366004612a58565b6105aa565b005b34801561028357600080fd5b5061020461029236600461284d565b6105b9565b3480156102a357600080fd5b506102046105cb565b3480156102b857600080fd5b506102756102c7366004612873565b6105e2565b3480156102d857600080fd5b5061020461071b565b3480156102ed57600080fd5b506103016102fc366004612a0a565b61072b565b6040516101e694939291906139aa565b34801561031d57600080fd5b50610204610a03565b34801561033257600080fd5b50610346610341366004612a0a565b610a08565b6040516101e69190613a98565b34801561035f57600080fd5b5061027561036e366004612a0a565b610bca565b34801561037f57600080fd5b50610388610eb0565b6040516101e69190613854565b3480156103a157600080fd5b506102756103b0366004612a88565b610ecc565b3480156103c157600080fd5b506102756110ae565b3480156103d657600080fd5b50610204611129565b3480156103eb57600080fd5b506102756103fa366004612873565b61112e565b34801561040b57600080fd5b50610204611237565b34801561042057600080fd5b50610275611247565b34801561043557600080fd5b50610248611319565b34801561044a57600080fd5b50610204611335565b34801561045f57600080fd5b5061020461046e3660046128ad565b61133b565b34801561047f57600080fd5b5061027561048e366004612a0a565b61183e565b34801561049f57600080fd5b50610204611b31565b3480156104b457600080fd5b506104c86104c3366004612a28565b611b3d565b6040516101e69190613c07565b6102756104e3366004612a0a565b611bae565b6004602052600090815260409020805460018201546002830154600784015460088501546009860154600a870154600b90970154959673ffffffffffffffffffffffffffffffffffffffff90951695939492939192909160ff8082169161010090041689565b6107805b90565b6040518060400160405280601281526020017f59414d20476f7665726e6f7220416c706861000000000000000000000000000081525081565b60015473ffffffffffffffffffffffffffffffffffffffff1681565b6105b5338383611de2565b5050565b60056020526000908152604090205481565b6040516105d79061383e565b604051809103902081565b60025473ffffffffffffffffffffffffffffffffffffffff16331461063c576040517f08c379a000000000000000000000000000000000000000000000000000000000815260040161063390613ae7565b60405180910390fd5b6000805460405173ffffffffffffffffffffffffffffffffffffffff90911691630825f38f91839190610673908790602001613854565b604051602081830303815290604052856040518563ffffffff1660e01b81526004016106a2949392919061387d565b600060405180830381600087803b1580156106bc57600080fd5b505af11580156106d0573d6000803e3d6000fd5b505050506040513d6000823e601f3d9081017fffffffffffffffffffffffffffffffffffffffffffffffffffffffffffffffe016820160405261071691908101906129d5565b505050565b6b71175249d9818853b800000090565b606080606080600060046000878152602001908152602001600020905080600301816004018260050183600601838054806020026020016040519081016040528092919081815260200182805480156107ba57602002820191906000526020600020905b815473ffffffffffffffffffffffffffffffffffffffff16815260019091019060200180831161078f575b505050505093508280548060200260200160405190810160405280929190818152602001828054801561080c57602002820191906000526020600020905b8154815260200190600101908083116107f8575b5050505050925081805480602002602001604051908101604052809291908181526020016000905b828210156108fd5760008481526020908190208301805460408051601f60027fffffffffffffffffffffffffffffffffffffffffffffffffffffffffffffffff6101006001871615020190941693909304928301859004850281018501909152818152928301828280156108e95780601f106108be576101008083540402835291602001916108e9565b820191906000526020600020905b8154815290600101906020018083116108cc57829003601f168201915b505050505081526020019060010190610834565b50505050915080805480602002602001604051908101604052809291908181526020016000905b828210156109ed5760008481526020908190208301805460408051601f60027fffffffffffffffffffffffffffffffffffffffffffffffffffffffffffffffff6101006001871615020190941693909304928301859004850281018501909152818152928301828280156109d95780601f106109ae576101008083540402835291602001916109d9565b820191906000526020600020905b8154815290600101906020018083116109bc57829003601f168201915b505050505081526020019060010190610924565b5050505090509450945094509450509193509193565b600190565b60008160035410158015610a1c5750600082115b610a52576040517f08c379a000000000000000000000000000000000000000000000000000000000815260040161063390613af7565b6000828152600460205260409020600b81015460ff1615610a77576002915050610bc5565b80600701544311610a8c576000915050610bc5565b80600801544311610aa1576001915050610bc5565b80600a01548160090154111580610ac25750610abb61071b565b8160090154105b15610ad1576003915050610bc5565b6002810154610ae4576004915050610bc5565b600b810154610100900460ff1615610b00576007915050610bc5565b6002810154600054604080517fc1a287e20000000000000000000000000000000000000000000000000000000081529051610baf939273ffffffffffffffffffffffffffffffffffffffff169163c1a287e2916004808301926020929190829003018186803b158015610b7257600080fd5b505afa158015610b86573d6000803e3d6000fd5b505050506040513d601f19601f82011682018060405250610baa91908101906129b7565b612020565b4210610bbf576006915050610bc5565b60059150505b919050565b6000610bd582610a08565b90506007816007811115610be557fe5b1415610c1d576040517f08c379a000000000000000000000000000000000000000000000000000000000815260040161063390613bc7565b600082815260046020526040902060025473ffffffffffffffffffffffffffffffffffffffff16331480610cf95750610c54611237565b600180548382015473ffffffffffffffffffffffffffffffffffffffff9182169263782d6fe19290911690610c8a904390612066565b6040518363ffffffff1660e01b8152600401610ca79291906138cc565b60206040518083038186803b158015610cbf57600080fd5b505afa158015610cd3573d6000803e3d6000fd5b505050506040513d601f19601f82011682018060405250610cf791908101906129b7565b105b610d2f576040517f08c379a000000000000000000000000000000000000000000000000000000000815260040161063390613b67565b600b810180547fffffffffffffffffffffffffffffffffffffffffffffffffffffffffffffff0016600117905560005b6003820154811015610e735760005460038301805473ffffffffffffffffffffffffffffffffffffffff9092169163591fcdfe919084908110610d9e57fe5b60009182526020909120015460048501805473ffffffffffffffffffffffffffffffffffffffff9092169185908110610dd357fe5b9060005260206000200154856005018581548110610ded57fe5b90600052602060002001866006018681548110610e0657fe5b9060005260206000200187600201546040518663ffffffff1660e01b8152600401610e35959493929190613969565b600060405180830381600087803b158015610e4f57600080fd5b505af1158015610e63573d6000803e3d6000fd5b505060019092019150610d5f9050565b507f789cf55be980739dad1d0699b93b58e806b51c9d96619bfa8fe0a28abaa7b30c83604051610ea391906139f7565b60405180910390a1505050565b60025473ffffffffffffffffffffffffffffffffffffffff1681565b6000604051610eda9061383e565b60408051918290038220828201909152601282527f59414d20476f7665726e6f7220416c70686100000000000000000000000000006020909201919091527f63e44b07eb663d132f3b867c12624d91b2a07d728ab5358df3bb5d0d12341eb9610f416120a8565b30604051602001610f559493929190613a05565b6040516020818303038152906040528051906020012090506000604051610f7b90613849565b604051908190038120610f949189908990602001613a3a565b60405160208183030381529060405280519060200120905060008282604051602001610fc192919061380d565b604051602081830303815290604052805190602001209050600060018288888860405160008152602001604052604051610ffe9493929190613a62565b6020604051602081039080840390855afa158015611020573d6000803e3d6000fd5b50506040517fffffffffffffffffffffffffffffffffffffffffffffffffffffffffffffffe0015191505073ffffffffffffffffffffffffffffffffffffffff8116611098576040517f08c379a000000000000000000000000000000000000000000000000000000000815260040161063390613ba7565b6110a3818a8a611de2565b505050505050505050565b60025473ffffffffffffffffffffffffffffffffffffffff1633146110ff576040517f08c379a000000000000000000000000000000000000000000000000000000000815260040161063390613bf7565b600280547fffffffffffffffffffffffff0000000000000000000000000000000000000000169055565b600a90565b60025473ffffffffffffffffffffffffffffffffffffffff16331461117f576040517f08c379a000000000000000000000000000000000000000000000000000000000815260040161063390613b27565b6000805460405173ffffffffffffffffffffffffffffffffffffffff90911691633a66f901918391906111b6908790602001613854565b604051602081830303815290604052856040518563ffffffff1660e01b81526004016111e5949392919061387d565b602060405180830381600087803b1580156111ff57600080fd5b505af1158015611213573d6000803e3d6000fd5b505050506040513d601f19601f8201168201806040525061071691908101906129b7565b6b204fce5e3e2502611000000090565b60025473ffffffffffffffffffffffffffffffffffffffff163314611298576040517f08c379a000000000000000000000000000000000000000000000000000000000815260040161063390613ab7565b60008054604080517f0e18b681000000000000000000000000000000000000000000000000000000008152905173ffffffffffffffffffffffffffffffffffffffff90921692630e18b6819260048084019382900301818387803b1580156112ff57600080fd5b505af1158015611313573d6000803e3d6000fd5b50505050565b60005473ffffffffffffffffffffffffffffffffffffffff1681565b60035481565b6000611345611237565b6001805473ffffffffffffffffffffffffffffffffffffffff169063782d6fe1903390611373904390612066565b6040518363ffffffff1660e01b8152600401611390929190613862565b60206040518083038186803b1580156113a857600080fd5b505afa1580156113bc573d6000803e3d6000fd5b505050506040513d601f19601f820116820180604052506113e091908101906129b7565b11611417576040517f08c379a000000000000000000000000000000000000000000000000000000000815260040161063390613b97565b84518651148015611429575083518651145b8015611436575082518651145b61146c576040517f08c379a000000000000000000000000000000000000000000000000000000000815260040161063390613b57565b85516114a4576040517f08c379a000000000000000000000000000000000000000000000000000000000815260040161063390613b87565b6114ac611129565b865111156114e6576040517f08c379a000000000000000000000000000000000000000000000000000000000815260040161063390613b37565b33600090815260056020526040902054801561159757600061150782610a08565b9050600181600781111561151757fe5b141561154f576040517f08c379a000000000000000000000000000000000000000000000000000000000815260040161063390613bb7565b600081600781111561155d57fe5b1415611595576040517f08c379a000000000000000000000000000000000000000000000000000000000815260040161063390613b17565b505b60006115a543610baa610a03565b905060006115b582610baa61054e565b60038054600101905590506115c8612258565b604051806101a0016040528060035481526020013373ffffffffffffffffffffffffffffffffffffffff168152602001600081526020018b81526020018a815260200189815260200188815260200184815260200183815260200160008152602001600081526020016000151581526020016000151581525090508060046000836000015181526020019081526020016000206000820151816000015560208201518160010160006101000a81548173ffffffffffffffffffffffffffffffffffffffff021916908373ffffffffffffffffffffffffffffffffffffffff1602179055506040820151816002015560608201518160030190805190602001906116d29291906122da565b50608082015180516116ee916004840191602090910190612364565b5060a0820151805161170a9160058401916020909101906123ab565b5060c08201518051611726916006840191602090910190612404565b5060e082015181600701556101008201518160080155610120820151816009015561014082015181600a015561016082015181600b0160006101000a81548160ff02191690831515021790555061018082015181600b0160016101000a81548160ff021916908315150217905550905050806000015160056000836020015173ffffffffffffffffffffffffffffffffffffffff1673ffffffffffffffffffffffffffffffffffffffff168152602001908152602001600020819055507f7d84a6263ae0d98d3329bd7b46bb4e8d6f98cd35a7adb45c274c8b7fd5ebd5e08160000151338c8c8c8c89898e60405161182699989796959493929190613c15565b60405180910390a15193505050505b95945050505050565b600461184982610a08565b600781111561185457fe5b1461188b576040517f08c379a000000000000000000000000000000000000000000000000000000000815260040161063390613ac7565b6000818152600460208181526040808420845482517f6a42b8f8000000000000000000000000000000000000000000000000000000008152925191959461190694429473ffffffffffffffffffffffffffffffffffffffff90931693636a42b8f8938084019390829003018186803b158015610b7257600080fd5b905060005b6003830154811015611af757611aef83600301828154811061192957fe5b60009182526020909120015460048501805473ffffffffffffffffffffffffffffffffffffffff909216918490811061195e57fe5b906000526020600020015485600501848154811061197857fe5b600091825260209182902001805460408051601f60027fffffffffffffffffffffffffffffffffffffffffffffffffffffffffffffffff610100600187161502019094169390930492830185900485028101850190915281815292830182828015611a245780601f106119f957610100808354040283529160200191611a24565b820191906000526020600020905b815481529060010190602001808311611a0757829003601f168201915b5050505050866006018581548110611a3857fe5b600091825260209182902001805460408051601f60027fffffffffffffffffffffffffffffffffffffffffffffffffffffffffffffffff610100600187161502019094169390930492830185900485028101850190915281815292830182828015611ae45780601f10611ab957610100808354040283529160200191611ae4565b820191906000526020600020905b815481529060010190602001808311611ac757829003601f168201915b5050505050866120ac565b60010161190b565b50600282018190556040517f9a2e42fd6722813d69113e7d0079d3d940171428df7373df9c7f7617cfda289290610ea39085908490613d43565b6040516105d790613849565b611b4561245d565b50600082815260046020908152604080832073ffffffffffffffffffffffffffffffffffffffff85168452600c018252918290208251606081018452815460ff808216151583526101009091041615159281019290925260010154918101919091525b92915050565b6005611bb982610a08565b6007811115611bc457fe5b14611bfb576040517f08c379a000000000000000000000000000000000000000000000000000000000815260040161063390613ad7565b6000818152600460205260408120600b810180547fffffffffffffffffffffffffffffffffffffffffffffffffffffffffffff00ff16610100179055905b6003820154811015611da65760005460048301805473ffffffffffffffffffffffffffffffffffffffff90921691630825f38f919084908110611c7857fe5b9060005260206000200154846003018481548110611c9257fe5b60009182526020909120015460048601805473ffffffffffffffffffffffffffffffffffffffff9092169186908110611cc757fe5b9060005260206000200154866005018681548110611ce157fe5b90600052602060002001876006018781548110611cfa57fe5b9060005260206000200188600201546040518763ffffffff1660e01b8152600401611d29959493929190613969565b6000604051808303818588803b158015611d4257600080fd5b505af1158015611d56573d6000803e3d6000fd5b50505050506040513d6000823e601f3d9081017fffffffffffffffffffffffffffffffffffffffffffffffffffffffffffffffe0168201604052611d9d91908101906129d5565b50600101611c39565b507f712ae1383f79ac853f8d882153778e0260ef8f03b504e2866e0593e04d2b291f82604051611dd691906139f7565b60405180910390a15050565b6001611ded83610a08565b6007811115611df857fe5b14611e2f576040517f08c379a000000000000000000000000000000000000000000000000000000000815260040161063390613bd7565b600082815260046020908152604080832073ffffffffffffffffffffffffffffffffffffffff87168452600c8101909252909120805460ff1615611e9f576040517f08c379a000000000000000000000000000000000000000000000000000000000815260040161063390613b07565b60015460078301546040517f782d6fe100000000000000000000000000000000000000000000000000000000815260009273ffffffffffffffffffffffffffffffffffffffff169163782d6fe191611efb918a916004016138cc565b60206040518083038186803b158015611f1357600080fd5b505afa158015611f27573d6000803e3d6000fd5b505050506040513d601f19601f82011682018060405250611f4b91908101906129b7565b90508315611f6b57611f61836009015482612020565b6009840155611f7f565b611f7983600a015482612020565b600a8401555b815460017fffffffffffffffffffffffffffffffffffffffffffffffffffffffffffffff0090911681177fffffffffffffffffffffffffffffffffffffffffffffffffffffffffffff00ff166101008615150217835582018190556040517f877856338e13f63d0c36822ff0ef736b80934cd90574a3a5bc9262c39d217c46906120109088908890889086906138da565b60405180910390a1505050505050565b60008282018381101561205f576040517f08c379a000000000000000000000000000000000000000000000000000000000815260040161063390613b47565b9392505050565b6000828211156120a2576040517f08c379a000000000000000000000000000000000000000000000000000000000815260040161063390613be7565b50900390565b4690565b60005460405173ffffffffffffffffffffffffffffffffffffffff9091169063f2b06537906120e7908890889088908890889060200161390f565b604051602081830303815290604052805190602001206040518263ffffffff1660e01b815260040161211991906139f7565b60206040518083038186803b15801561213157600080fd5b505afa158015612145573d6000803e3d6000fd5b505050506040513d601f19601f820116820180604052506121699190810190612999565b156121a0576040517f08c379a000000000000000000000000000000000000000000000000000000000815260040161063390613b77565b6000546040517f3a66f90100000000000000000000000000000000000000000000000000000000815273ffffffffffffffffffffffffffffffffffffffff90911690633a66f901906121fe908890889088908890889060040161390f565b602060405180830381600087803b15801561221857600080fd5b505af115801561222c573d6000803e3d6000fd5b505050506040513d601f19601f8201168201806040525061225091908101906129b7565b505050505050565b604051806101a0016040528060008152602001600073ffffffffffffffffffffffffffffffffffffffff1681526020016000815260200160608152602001606081526020016060815260200160608152602001600081526020016000815260200160008152602001600081526020016000151581526020016000151581525090565b828054828255906000526020600020908101928215612354579160200282015b8281111561235457825182547fffffffffffffffffffffffff00000000000000000000000000000000000000001673ffffffffffffffffffffffffffffffffffffffff9091161782556020909201916001909101906122fa565b5061236092915061247d565b5090565b82805482825590600052602060002090810192821561239f579160200282015b8281111561239f578251825591602001919060010190612384565b506123609291506124b9565b8280548282559060005260206000209081019282156123f8579160200282015b828111156123f857825180516123e89184916020909101906124d3565b50916020019190600101906123cb565b50612360929150612540565b828054828255906000526020600020908101928215612451579160200282015b8281111561245157825180516124419184916020909101906124d3565b5091602001919060010190612424565b50612360929150612563565b604080516060810182526000808252602082018190529181019190915290565b61055291905b808211156123605780547fffffffffffffffffffffffff0000000000000000000000000000000000000000168155600101612483565b61055291905b8082111561236057600081556001016124bf565b828054600181600116156101000203166002900490600052602060002090601f016020900481019282601f1061251457805160ff191683800117855561239f565b8280016001018555821561239f579182018281111561239f578251825591602001919060010190612384565b61055291905b8082111561236057600061255a8282612586565b50600101612546565b61055291905b8082111561236057600061257d8282612586565b50600101612569565b50805460018160011615610100020316600290046000825580601f106125ac57506125ca565b601f0160209004906000526020600020908101906125ca91906124b9565b50565b8035611ba881613ec9565b600082601f8301126125e957600080fd5b81356125fc6125f782613d78565b613d51565b9150818183526020840193506020810190508385602084028201111561262157600080fd5b60005b8381101561264d578161263788826125cd565b8452506020928301929190910190600101612624565b5050505092915050565b600082601f83011261266857600080fd5b81356126766125f782613d78565b81815260209384019390925082018360005b8381101561264d578135860161269e88826127ad565b8452506020928301929190910190600101612688565b600082601f8301126126c557600080fd5b81356126d36125f782613d78565b81815260209384019390925082018360005b8381101561264d57813586016126fb88826127ad565b84525060209283019291909101906001016126e5565b600082601f83011261272257600080fd5b81356127306125f782613d78565b9150818183526020840193506020810190508385602084028201111561275557600080fd5b60005b8381101561264d578161276b8882612797565b8452506020928301929190910190600101612758565b8035611ba881613edd565b8051611ba881613edd565b8035611ba881613ee6565b8051611ba881613ee6565b600082601f8301126127be57600080fd5b81356127cc6125f782613d99565b915080825260208301602083018583830111156127e857600080fd5b6127f3838284613e5f565b50505092915050565b600082601f83011261280d57600080fd5b815161281b6125f782613d99565b9150808252602083016020830185838301111561283757600080fd5b6127f3838284613e6b565b8035611ba881613eef565b60006020828403121561285f57600080fd5b600061286b84846125cd565b949350505050565b6000806040838503121561288657600080fd5b600061289285856125cd565b92505060206128a385828601612797565b9150509250929050565b600080600080600060a086880312156128c557600080fd5b853567ffffffffffffffff8111156128dc57600080fd5b6128e8888289016125d8565b955050602086013567ffffffffffffffff81111561290557600080fd5b61291188828901612711565b945050604086013567ffffffffffffffff81111561292e57600080fd5b61293a888289016126b4565b935050606086013567ffffffffffffffff81111561295757600080fd5b61296388828901612657565b925050608086013567ffffffffffffffff81111561298057600080fd5b61298c888289016127ad565b9150509295509295909350565b6000602082840312156129ab57600080fd5b600061286b848461278c565b6000602082840312156129c957600080fd5b600061286b84846127a2565b6000602082840312156129e757600080fd5b815167ffffffffffffffff8111156129fe57600080fd5b61286b848285016127fc565b600060208284031215612a1c57600080fd5b600061286b8484612797565b60008060408385031215612a3b57600080fd5b6000612a478585612797565b92505060206128a3858286016125cd565b60008060408385031215612a6b57600080fd5b6000612a778585612797565b92505060206128a385828601612781565b600080600080600060a08688031215612aa057600080fd5b6000612aac8888612797565b9550506020612abd88828901612781565b9450506040612ace88828901612842565b9350506060612adf88828901612797565b925050608061298c88828901612797565b6000612afc8383612b2b565b505060200190565b600061205f8383612ccd565b6000612afc8383612cb3565b612b2581613e37565b82525050565b612b2581613dfe565b6000612b3f82613df1565b612b498185613df5565b9350612b5483613ddf565b8060005b83811015612b82578151612b6c8882612af0565b9750612b7783613ddf565b925050600101612b58565b509495945050505050565b6000612b9882613df1565b612ba28185613df5565b935083602082028501612bb485613ddf565b8060005b85811015612bee5784840389528151612bd18582612b04565b9450612bdc83613ddf565b60209a909a0199925050600101612bb8565b5091979650505050505050565b6000612c0682613df1565b612c108185613df5565b935083602082028501612c2285613ddf565b8060005b85811015612bee5784840389528151612c3f8582612b04565b9450612c4a83613ddf565b60209a909a0199925050600101612c26565b6000612c6782613df1565b612c718185613df5565b9350612c7c83613ddf565b8060005b83811015612b82578151612c948882612b10565b9750612c9f83613ddf565b925050600101612c80565b612b2581613e09565b612b2581610552565b612b25612cc882610552565b610552565b6000612cd882613df1565b612ce28185613df5565b9350612cf2818560208601613e6b565b612cfb81613e97565b9093019392505050565b600081546001811660008114612d225760018114612d6657612da5565b607f6002830416612d338187613df5565b7fffffffffffffffffffffffffffffffffffffffffffffffffffffffffffffff0084168152955050602085019250612da5565b60028204612d748187613df5565b9550612d7f85613de5565b60005b82811015612d9e57815488820152600190910190602001612d82565b8701945050505b505092915050565b612b2581613e3e565b612b2581613e49565b612b2581613e54565b6000612dd5603983613df5565b7f476f7665726e6f72416c7068613a3a5f5f61636365707441646d696e3a20736581527f6e646572206d75737420626520676f7620677561726469616e00000000000000602082015260400192915050565b6000612e34604483613df5565b7f476f7665726e6f72416c7068613a3a71756575653a2070726f706f73616c206381527f616e206f6e6c792062652071756575656420696620697420697320737563636560208201527f6564656400000000000000000000000000000000000000000000000000000000604082015260600192915050565b6000612eb9604583613df5565b7f476f7665726e6f72416c7068613a3a657865637574653a2070726f706f73616c81527f2063616e206f6e6c79206265206578656375746564206966206974206973207160208201527f7565756564000000000000000000000000000000000000000000000000000000604082015260600192915050565b6000612f3e600283610bc5565b7f1901000000000000000000000000000000000000000000000000000000000000815260020192915050565b6000612f77604c83613df5565b7f476f7665726e6f72416c7068613a3a5f5f6578656375746553657454696d656c81527f6f636b50656e64696e6741646d696e3a2073656e646572206d7573742062652060208201527f676f7620677561726469616e0000000000000000000000000000000000000000604082015260600192915050565b6000612ffc601883613df5565b7f73657450656e64696e6741646d696e2861646472657373290000000000000000815260200192915050565b6000613035602983613df5565b7f476f7665726e6f72416c7068613a3a73746174653a20696e76616c696420707281527f6f706f73616c2069640000000000000000000000000000000000000000000000602082015260400192915050565b6000613094602d83613df5565b7f476f7665726e6f72416c7068613a3a5f63617374566f74653a20766f7465722081527f616c726561647920766f74656400000000000000000000000000000000000000602082015260400192915050565b60006130f3605983613df5565b7f476f7665726e6f72416c7068613a3a70726f706f73653a206f6e65206c69766581527f2070726f706f73616c207065722070726f706f7365722c20666f756e6420616e60208201527f20616c72656164792070656e64696e672070726f706f73616c00000000000000604082015260600192915050565b6000613178604a83613df5565b7f476f7665726e6f72416c7068613a3a5f5f717565756553657454696d656c6f6381527f6b50656e64696e6741646d696e3a2073656e646572206d75737420626520676f60208201527f7620677561726469616e00000000000000000000000000000000000000000000604082015260600192915050565b60006131fd602883613df5565b7f476f7665726e6f72416c7068613a3a70726f706f73653a20746f6f206d616e7981527f20616374696f6e73000000000000000000000000000000000000000000000000602082015260400192915050565b600061325c601183613df5565b7f6164646974696f6e206f766572666c6f77000000000000000000000000000000815260200192915050565b6000613295604383610bc5565b7f454950373132446f6d61696e28737472696e67206e616d652c75696e7432353681527f20636861696e49642c6164647265737320766572696679696e67436f6e74726160208201527f6374290000000000000000000000000000000000000000000000000000000000604082015260430192915050565b600061331a602783610bc5565b7f42616c6c6f742875696e743235362070726f706f73616c49642c626f6f6c207381527f7570706f72742900000000000000000000000000000000000000000000000000602082015260270192915050565b6000613379604483613df5565b7f476f7665726e6f72416c7068613a3a70726f706f73653a2070726f706f73616c81527f2066756e6374696f6e20696e666f726d6174696f6e206172697479206d69736d60208201527f6174636800000000000000000000000000000000000000000000000000000000604082015260600192915050565b60006133fe602f83613df5565b7f476f7665726e6f72416c7068613a3a63616e63656c3a2070726f706f7365722081527f61626f7665207468726573686f6c640000000000000000000000000000000000602082015260400192915050565b600061345d604483613df5565b7f476f7665726e6f72416c7068613a3a5f71756575654f725265766572743a207081527f726f706f73616c20616374696f6e20616c72656164792071756575656420617460208201527f2065746100000000000000000000000000000000000000000000000000000000604082015260600192915050565b60006134e2602c83613df5565b7f476f7665726e6f72416c7068613a3a70726f706f73653a206d7573742070726f81527f7669646520616374696f6e730000000000000000000000000000000000000000602082015260400192915050565b6000613541603f83613df5565b7f476f7665726e6f72416c7068613a3a70726f706f73653a2070726f706f73657281527f20766f7465732062656c6f772070726f706f73616c207468726573686f6c6400602082015260400192915050565b60006135a0602f83613df5565b7f476f7665726e6f72416c7068613a3a63617374566f746542795369673a20696e81527f76616c6964207369676e61747572650000000000000000000000000000000000602082015260400192915050565b60006135ff605883613df5565b7f476f7665726e6f72416c7068613a3a70726f706f73653a206f6e65206c69766581527f2070726f706f73616c207065722070726f706f7365722c20666f756e6420616e60208201527f20616c7265616479206163746976652070726f706f73616c0000000000000000604082015260600192915050565b6000613684603683613df5565b7f476f7665726e6f72416c7068613a3a63616e63656c3a2063616e6e6f7420636181527f6e63656c2065786563757465642070726f706f73616c00000000000000000000602082015260400192915050565b60006136e3602a83613df5565b7f476f7665726e6f72416c7068613a3a5f63617374566f74653a20766f74696e6781527f20697320636c6f73656400000000000000000000000000000000000000000000602082015260400192915050565b6000613742601583613df5565b7f7375627472616374696f6e20756e646572666c6f770000000000000000000000815260200192915050565b600061377b603683613df5565b7f476f7665726e6f72416c7068613a3a5f5f61626469636174653a2073656e646581527f72206d75737420626520676f7620677561726469616e00000000000000000000602082015260400192915050565b805160608301906137de8482612caa565b5060208201516137f16020850182612caa565b5060408201516113136040850182612cb3565b612b2581613e31565b600061381882612f31565b91506138248285612cbc565b6020820191506138348284612cbc565b5060200192915050565b6000611ba882613288565b6000611ba88261330d565b60208101611ba88284612b2b565b604081016138708285612b1c565b61205f6020830184612cb3565b60a0810161388b8287612b2b565b6138986020830186612dbf565b81810360408301526138a981612fef565b905081810360608301526138bd8185612ccd565b90506118356080830184612cb3565b604081016138708285612b2b565b608081016138e88287612b2b565b6138f56020830186612cb3565b6139026040830185612caa565b6118356060830184612cb3565b60a0810161391d8288612b2b565b61392a6020830187612cb3565b818103604083015261393c8186612ccd565b905081810360608301526139508185612ccd565b905061395f6080830184612cb3565b9695505050505050565b60a081016139778288612b2b565b6139846020830187612cb3565b81810360408301526139968186612d05565b905081810360608301526139508185612d05565b608080825281016139bb8187612b34565b905081810360208301526139cf8186612c5c565b905081810360408301526139e38185612bfb565b9050818103606083015261395f8184612b8d565b60208101611ba88284612cb3565b60808101613a138287612cb3565b613a206020830186612cb3565b613a2d6040830185612cb3565b6118356060830184612b2b565b60608101613a488286612cb3565b613a556020830185612cb3565b61286b6040830184612caa565b60808101613a708287612cb3565b613a7d6020830186613804565b6139026040830185612cb3565b60208101611ba88284612dad565b60208101611ba88284612db6565b6020808252810161205f8184612ccd565b60208082528101611ba881612dc8565b60208082528101611ba881612e27565b60208082528101611ba881612eac565b60208082528101611ba881612f6a565b60208082528101611ba881613028565b60208082528101611ba881613087565b60208082528101611ba8816130e6565b60208082528101611ba88161316b565b60208082528101611ba8816131f0565b60208082528101611ba88161324f565b60208082528101611ba88161336c565b60208082528101611ba8816133f1565b60208082528101611ba881613450565b60208082528101611ba8816134d5565b60208082528101611ba881613534565b60208082528101611ba881613593565b60208082528101611ba8816135f2565b60208082528101611ba881613677565b60208082528101611ba8816136d6565b60208082528101611ba881613735565b60208082528101611ba88161376e565b60608101611ba882846137cd565b6101208101613c24828c612cb3565b613c31602083018b612b1c565b8181036040830152613c43818a612b34565b90508181036060830152613c578189612c5c565b90508181036080830152613c6b8188612bfb565b905081810360a0830152613c7f8187612b8d565b9050613c8e60c0830186612cb3565b613c9b60e0830185612cb3565b818103610100830152613cae8184612ccd565b9b9a5050505050505050505050565b6101208101613ccc828c612cb3565b613cd9602083018b612b2b565b613ce6604083018a612cb3565b613cf36060830189612cb3565b613d006080830188612cb3565b613d0d60a0830187612cb3565b613d1a60c0830186612cb3565b613d2760e0830185612caa565b613d35610100830184612caa565b9a9950505050505050505050565b604081016138708285612cb3565b60405181810167ffffffffffffffff81118282101715613d7057600080fd5b604052919050565b600067ffffffffffffffff821115613d8f57600080fd5b5060209081020190565b600067ffffffffffffffff821115613db057600080fd5b506020601f919091017fffffffffffffffffffffffffffffffffffffffffffffffffffffffffffffffe0160190565b60200190565b60009081526020902090565b5190565b90815260200190565b6000611ba882613e18565b151590565b80610bc581613ebf565b73ffffffffffffffffffffffffffffffffffffffff1690565b60ff1690565b6000611ba8825b6000611ba882613dfe565b6000611ba882613e0e565b6000611ba882610552565b82818337506000910152565b60005b83811015613e86578181015183820152602001613e6e565b838111156113135750506000910152565b601f017fffffffffffffffffffffffffffffffffffffffffffffffffffffffffffffffe01690565b600881106125ca57fe5b613ed281613dfe565b81146125ca57600080fd5b613ed281613e09565b613ed281610552565b613ed281613e3156fea365627a7a72315820f51612633ca1ff3a12b06e0bf3009d4f673becde4f8c1ca5bb2e97d6e8c407766c6578706572696d656e74616cf564736f6c63430005110040",
  "source": "pragma solidity ^0.5.17;\npragma experimental ABIEncoderV2;\n\n// SAVE YAM.\n\n\nimport \"./lib/SafeMath.sol\";\n\ncontract GovernorAlpha {\n    /// @notice The name of this contract\n    string public constant name = \"YAM Governor Alpha\";\n\n    /// @notice The number of votes in support of a proposal required in order for a quorum to be reached and for a vote to succeed\n    function quorumVotes() public view returns (uint256) { return 35000*10**24; } // 1% of inital YAM\n\n    /// @notice The number of votes required in order for a voter to become a proposer\n    function proposalThreshold() public view returns (uint256) { return 10000*10**24; } // .5% of initial YAM\n\n    /// @notice The maximum number of actions that can be included in a proposal\n    function proposalMaxOperations() public pure returns (uint256) { return 10; } // 10 actions\n\n    /// @notice The delay before voting on a proposal may take place, once proposed\n    function votingDelay() public pure returns (uint256) { return 1; } // 1 block\n\n    /// @notice The duration of voting on a proposal, in blocks\n    function votingPeriod() public pure returns (uint256) { return 1920; } // ~8 hours\n\n    /// @notice The address of the Compound Protocol Timelock\n    TimelockInterface public timelock;\n\n    /// @notice The address of the Compound governance token\n    YAMInterface public yam;\n\n    /// @notice The address of the Governor Guardian\n    address public guardian;\n\n    /// @notice The total number of proposals\n    uint256 public proposalCount;\n\n    struct Proposal {\n        /// @notice Unique id for looking up a proposal\n        uint256 id;\n\n        /// @notice Creator of the proposal\n        address proposer;\n\n        /// @notice The timestamp that the proposal will be available for execution, set once the vote succeeds\n        uint256 eta;\n\n        /// @notice the ordered list of target addresses for calls to be made\n        address[] targets;\n\n        /// @notice The ordered list of values (i.e. msg.value) to be passed to the calls to be made\n        uint[] values;\n\n        /// @notice The ordered list of function signatures to be called\n        string[] signatures;\n\n        /// @notice The ordered list of calldata to be passed to each call\n        bytes[] calldatas;\n\n        /// @notice The block at which voting begins: holders must delegate their votes prior to this block\n        uint256 startBlock;\n\n        /// @notice The block at which voting ends: votes must be cast prior to this block\n        uint256 endBlock;\n\n        /// @notice Current number of votes in favor of this proposal\n        uint256 forVotes;\n\n        /// @notice Current number of votes in opposition to this proposal\n        uint256 againstVotes;\n\n        /// @notice Flag marking whether the proposal has been canceled\n        bool canceled;\n\n        /// @notice Flag marking whether the proposal has been executed\n        bool executed;\n\n        /// @notice Receipts of ballots for the entire set of voters\n        mapping (address => Receipt) receipts;\n    }\n\n    /// @notice Ballot receipt record for a voter\n    struct Receipt {\n        /// @notice Whether or not a vote has been cast\n        bool hasVoted;\n\n        /// @notice Whether or not the voter supports the proposal\n        bool support;\n\n        /// @notice The number of votes the voter had, which were cast\n        uint256 votes;\n    }\n\n    /// @notice Possible states that a proposal may be in\n    enum ProposalState {\n        Pending,\n        Active,\n        Canceled,\n        Defeated,\n        Succeeded,\n        Queued,\n        Expired,\n        Executed\n    }\n\n    /// @notice The official record of all proposals ever proposed\n    mapping (uint256 => Proposal) public proposals;\n\n    /// @notice The latest proposal for each proposer\n    mapping (address => uint256) public latestProposalIds;\n\n    /// @notice The EIP-712 typehash for the contract's domain\n    bytes32 public constant DOMAIN_TYPEHASH = keccak256(\"EIP712Domain(string name,uint256 chainId,address verifyingContract)\");\n\n    /// @notice The EIP-712 typehash for the ballot struct used by the contract\n    bytes32 public constant BALLOT_TYPEHASH = keccak256(\"Ballot(uint256 proposalId,bool support)\");\n\n    /// @notice An event emitted when a new proposal is created\n    event ProposalCreated(uint256 id, address proposer, address[] targets, uint[] values, string[] signatures, bytes[] calldatas, uint256 startBlock, uint256 endBlock, string description);\n\n    /// @notice An event emitted when a vote has been cast on a proposal\n    event VoteCast(address voter, uint256 proposalId, bool support, uint256 votes);\n\n    /// @notice An event emitted when a proposal has been canceled\n    event ProposalCanceled(uint256 id);\n\n    /// @notice An event emitted when a proposal has been queued in the Timelock\n    event ProposalQueued(uint256 id, uint256 eta);\n\n    /// @notice An event emitted when a proposal has been executed in the Timelock\n    event ProposalExecuted(uint256 id);\n\n    constructor(address timelock_, address yam_) public {\n        timelock = TimelockInterface(timelock_);\n        yam = YAMInterface(yam_);\n        guardian = msg.sender;\n    }\n\n    function propose(\n        address[] memory targets,\n        uint[] memory values,\n        string[] memory signatures,\n        bytes[] memory calldatas,\n        string memory description\n    )\n        public\n        returns (uint256)\n    {\n        require(yam.getPriorVotes(msg.sender, sub256(block.number, 1)) > proposalThreshold(), \"GovernorAlpha::propose: proposer votes below proposal threshold\");\n        require(targets.length == values.length && targets.length == signatures.length && targets.length == calldatas.length, \"GovernorAlpha::propose: proposal function information arity mismatch\");\n        require(targets.length != 0, \"GovernorAlpha::propose: must provide actions\");\n        require(targets.length <= proposalMaxOperations(), \"GovernorAlpha::propose: too many actions\");\n\n        uint256 latestProposalId = latestProposalIds[msg.sender];\n        if (latestProposalId != 0) {\n          ProposalState proposersLatestProposalState = state(latestProposalId);\n          require(proposersLatestProposalState != ProposalState.Active, \"GovernorAlpha::propose: one live proposal per proposer, found an already active proposal\");\n          require(proposersLatestProposalState != ProposalState.Pending, \"GovernorAlpha::propose: one live proposal per proposer, found an already pending proposal\");\n        }\n\n        uint256 startBlock = add256(block.number, votingDelay());\n        uint256 endBlock = add256(startBlock, votingPeriod());\n\n        proposalCount++;\n        Proposal memory newProposal = Proposal({\n            id: proposalCount,\n            proposer: msg.sender,\n            eta: 0,\n            targets: targets,\n            values: values,\n            signatures: signatures,\n            calldatas: calldatas,\n            startBlock: startBlock,\n            endBlock: endBlock,\n            forVotes: 0,\n            againstVotes: 0,\n            canceled: false,\n            executed: false\n        });\n\n        proposals[newProposal.id] = newProposal;\n        latestProposalIds[newProposal.proposer] = newProposal.id;\n\n        emit ProposalCreated(\n            newProposal.id,\n            msg.sender,\n            targets,\n            values,\n            signatures,\n            calldatas,\n            startBlock,\n            endBlock,\n            description\n        );\n        return newProposal.id;\n    }\n\n    function queue(uint256 proposalId)\n        public\n    {\n        require(state(proposalId) == ProposalState.Succeeded, \"GovernorAlpha::queue: proposal can only be queued if it is succeeded\");\n        Proposal storage proposal = proposals[proposalId];\n        uint256 eta = add256(block.timestamp, timelock.delay());\n        for (uint256 i = 0; i < proposal.targets.length; i++) {\n            _queueOrRevert(\n                proposal.targets[i],\n                proposal.values[i],\n                proposal.signatures[i],\n                proposal.calldatas[i],\n                eta\n            );\n        }\n        proposal.eta = eta;\n        emit ProposalQueued(proposalId, eta);\n    }\n\n    function _queueOrRevert(\n        address target,\n        uint256 value,\n        string memory signature,\n        bytes memory data,\n        uint256 eta\n    )\n        internal\n    {\n        require(!timelock.queuedTransactions(\n              keccak256(\n                  abi.encode(\n                      target,\n                      value,\n                      signature,\n                      data,\n                      eta\n                  )\n              )\n          ),\n          \"GovernorAlpha::_queueOrRevert: proposal action already queued at eta\"\n        );\n\n        timelock.queueTransaction(target, value, signature, data, eta);\n    }\n\n    function execute(uint256 proposalId)\n        public\n        payable\n    {\n        require(state(proposalId) == ProposalState.Queued, \"GovernorAlpha::execute: proposal can only be executed if it is queued\");\n        Proposal storage proposal = proposals[proposalId];\n        proposal.executed = true;\n        for (uint256 i = 0; i < proposal.targets.length; i++) {\n            timelock.executeTransaction.value(proposal.values[i])(proposal.targets[i], proposal.values[i], proposal.signatures[i], proposal.calldatas[i], proposal.eta);\n        }\n        emit ProposalExecuted(proposalId);\n    }\n\n    function cancel(uint256 proposalId)\n        public\n    {\n        ProposalState state = state(proposalId);\n        require(state != ProposalState.Executed, \"GovernorAlpha::cancel: cannot cancel executed proposal\");\n\n        Proposal storage proposal = proposals[proposalId];\n        require(msg.sender == guardian || yam.getPriorVotes(proposal.proposer, sub256(block.number, 1)) < proposalThreshold(), \"GovernorAlpha::cancel: proposer above threshold\");\n\n        proposal.canceled = true;\n        for (uint256 i = 0; i < proposal.targets.length; i++) {\n            timelock.cancelTransaction(proposal.targets[i], proposal.values[i], proposal.signatures[i], proposal.calldatas[i], proposal.eta);\n        }\n\n        emit ProposalCanceled(proposalId);\n    }\n\n    function getActions(uint256 proposalId)\n        public\n        view\n        returns (\n            address[] memory targets,\n            uint[] memory values,\n            string[] memory signatures,\n            bytes[] memory calldatas\n        )\n    {\n        Proposal storage p = proposals[proposalId];\n        return (p.targets, p.values, p.signatures, p.calldatas);\n    }\n\n    function getReceipt(uint256 proposalId, address voter)\n        public\n        view\n        returns (Receipt memory)\n    {\n        return proposals[proposalId].receipts[voter];\n    }\n\n    function state(uint256 proposalId)\n        public\n        view\n        returns (ProposalState)\n    {\n        require(proposalCount >= proposalId && proposalId > 0, \"GovernorAlpha::state: invalid proposal id\");\n        Proposal storage proposal = proposals[proposalId];\n        if (proposal.canceled) {\n            return ProposalState.Canceled;\n        } else if (block.number <= proposal.startBlock) {\n            return ProposalState.Pending;\n        } else if (block.number <= proposal.endBlock) {\n            return ProposalState.Active;\n        } else if (proposal.forVotes <= proposal.againstVotes || proposal.forVotes < quorumVotes()) {\n            return ProposalState.Defeated;\n        } else if (proposal.eta == 0) {\n            return ProposalState.Succeeded;\n        } else if (proposal.executed) {\n            return ProposalState.Executed;\n        } else if (block.timestamp >= add256(proposal.eta, timelock.GRACE_PERIOD())) {\n            return ProposalState.Expired;\n        } else {\n            return ProposalState.Queued;\n        }\n    }\n\n    function castVote(uint256 proposalId, bool support)\n        public\n    {\n        return _castVote(msg.sender, proposalId, support);\n    }\n\n    function castVoteBySig(\n        uint256 proposalId,\n        bool support,\n        uint8 v,\n        bytes32 r,\n        bytes32 s\n    )\n        public\n    {\n        bytes32 domainSeparator = keccak256(\n            abi.encode(\n                DOMAIN_TYPEHASH,\n                keccak256(bytes(name)),\n                getChainId(),\n                address(this)\n            )\n        );\n\n        bytes32 structHash = keccak256(\n            abi.encode(\n                BALLOT_TYPEHASH,\n                proposalId,\n                support\n            )\n        );\n\n        bytes32 digest = keccak256(\n            abi.encodePacked(\n                \"\\x19\\x01\",\n                domainSeparator,\n                structHash\n            )\n        );\n\n        address signatory = ecrecover(digest, v, r, s);\n        require(signatory != address(0), \"GovernorAlpha::castVoteBySig: invalid signature\");\n        return _castVote(signatory, proposalId, support);\n    }\n\n    function _castVote(\n        address voter,\n        uint256 proposalId,\n        bool support\n    )\n        internal\n    {\n        require(state(proposalId) == ProposalState.Active, \"GovernorAlpha::_castVote: voting is closed\");\n        Proposal storage proposal = proposals[proposalId];\n        Receipt storage receipt = proposal.receipts[voter];\n        require(receipt.hasVoted == false, \"GovernorAlpha::_castVote: voter already voted\");\n        uint256 votes = yam.getPriorVotes(voter, proposal.startBlock);\n\n        if (support) {\n            proposal.forVotes = add256(proposal.forVotes, votes);\n        } else {\n            proposal.againstVotes = add256(proposal.againstVotes, votes);\n        }\n\n        receipt.hasVoted = true;\n        receipt.support = support;\n        receipt.votes = votes;\n\n        emit VoteCast(voter, proposalId, support, votes);\n    }\n\n    function __acceptAdmin()\n        public\n    {\n        require(msg.sender == guardian, \"GovernorAlpha::__acceptAdmin: sender must be gov guardian\");\n        timelock.acceptAdmin();\n    }\n\n    function __abdicate()\n        public\n    {\n        require(msg.sender == guardian, \"GovernorAlpha::__abdicate: sender must be gov guardian\");\n        guardian = address(0);\n    }\n\n    function __queueSetTimelockPendingAdmin(\n        address newPendingAdmin,\n        uint256 eta\n    )\n        public\n    {\n        require(msg.sender == guardian, \"GovernorAlpha::__queueSetTimelockPendingAdmin: sender must be gov guardian\");\n        timelock.queueTransaction(address(timelock), 0, \"setPendingAdmin(address)\", abi.encode(newPendingAdmin), eta);\n    }\n\n    function __executeSetTimelockPendingAdmin(\n        address newPendingAdmin,\n        uint256 eta\n    )\n        public\n    {\n        require(msg.sender == guardian, \"GovernorAlpha::__executeSetTimelockPendingAdmin: sender must be gov guardian\");\n        timelock.executeTransaction(address(timelock), 0, \"setPendingAdmin(address)\", abi.encode(newPendingAdmin), eta);\n    }\n\n    function add256(uint256 a, uint256 b) internal pure returns (uint256) {\n        uint256 c = a + b;\n        require(c >= a, \"addition overflow\");\n        return c;\n    }\n\n    function sub256(uint256 a, uint256 b) internal pure returns (uint256) {\n        require(b <= a, \"subtraction underflow\");\n        return a - b;\n    }\n\n    function getChainId() internal pure returns (uint256) {\n        uint256 chainId;\n        assembly { chainId := chainid() }\n        return chainId;\n    }\n}\n\ninterface TimelockInterface {\n    function delay() external view returns (uint256);\n    function GRACE_PERIOD() external view returns (uint256);\n    function acceptAdmin() external;\n    function queuedTransactions(bytes32 hash) external view returns (bool);\n    function queueTransaction(address target, uint256 value, string calldata signature, bytes calldata data, uint256 eta) external returns (bytes32);\n    function cancelTransaction(address target, uint256 value, string calldata signature, bytes calldata data, uint256 eta) external;\n    function executeTransaction(address target, uint256 value, string calldata signature, bytes calldata data, uint256 eta) external payable returns (bytes memory);\n}\n\ninterface YAMInterface {\n    function getPriorVotes(address account, uint256 blockNumber) external view returns (uint256);\n    function initSupply() external view returns (uint256);\n    function _acceptGov() external;\n}\n",
  "sourcePath": "/Users/brockelmore/saveYAM/contracts/YAMGovernorAlpha.sol",
  "compiler": {
    "name": "solc",
    "version": "0.5.17+commit.d19bba13.Linux.g++"
  },
  "schemaVersion": "3.0.16",
  "updatedAt": "2020-08-12T22:39:59.900Z",
  "devdoc": {
    "methods": {}
  },
  "userdoc": {
    "methods": {
      "proposalMaxOperations()": {
        "notice": "The maximum number of actions that can be included in a proposal"
      },
      "proposalThreshold()": {
        "notice": "The number of votes required in order for a voter to become a proposer"
      },
      "quorumVotes()": {
        "notice": "The number of votes in support of a proposal required in order for a quorum to be reached and for a vote to succeed"
      },
      "votingDelay()": {
        "notice": "The delay before voting on a proposal may take place, once proposed"
      },
      "votingPeriod()": {
        "notice": "The duration of voting on a proposal, in blocks"
      }
    }
  }
}